{
  "_format": "hh-sol-artifact-1",
  "contractName": "testERC20",
  "sourceName": "contracts/testERC20.sol",
  "abi": [
    {
      "inputs": [
        {
          "internalType": "uint256",
          "name": "_unlockTime",
          "type": "uint256"
        }
      ],
      "stateMutability": "payable",
      "type": "constructor"
    },
    {
      "inputs": [
        {
          "internalType": "address",
          "name": "spender",
          "type": "address"
        },
        {
          "internalType": "uint256",
          "name": "allowance",
          "type": "uint256"
        },
        {
          "internalType": "uint256",
          "name": "needed",
          "type": "uint256"
        }
      ],
      "name": "ERC20InsufficientAllowance",
      "type": "error"
    },
    {
      "inputs": [
        {
          "internalType": "address",
          "name": "sender",
          "type": "address"
        },
        {
          "internalType": "uint256",
          "name": "balance",
          "type": "uint256"
        },
        {
          "internalType": "uint256",
          "name": "needed",
          "type": "uint256"
        }
      ],
      "name": "ERC20InsufficientBalance",
      "type": "error"
    },
    {
      "inputs": [
        {
          "internalType": "address",
          "name": "approver",
          "type": "address"
        }
      ],
      "name": "ERC20InvalidApprover",
      "type": "error"
    },
    {
      "inputs": [
        {
          "internalType": "address",
          "name": "receiver",
          "type": "address"
        }
      ],
      "name": "ERC20InvalidReceiver",
      "type": "error"
    },
    {
      "inputs": [
        {
          "internalType": "address",
          "name": "sender",
          "type": "address"
        }
      ],
      "name": "ERC20InvalidSender",
      "type": "error"
    },
    {
      "inputs": [
        {
          "internalType": "address",
          "name": "spender",
          "type": "address"
        }
      ],
      "name": "ERC20InvalidSpender",
      "type": "error"
    },
    {
      "anonymous": false,
      "inputs": [
        {
          "indexed": true,
          "internalType": "address",
          "name": "owner",
          "type": "address"
        },
        {
          "indexed": true,
          "internalType": "address",
          "name": "spender",
          "type": "address"
        },
        {
          "indexed": false,
          "internalType": "uint256",
          "name": "value",
          "type": "uint256"
        }
      ],
      "name": "Approval",
      "type": "event"
    },
    {
      "anonymous": false,
      "inputs": [
        {
          "indexed": true,
          "internalType": "address",
          "name": "from",
          "type": "address"
        },
        {
          "indexed": true,
          "internalType": "address",
          "name": "to",
          "type": "address"
        },
        {
          "indexed": false,
          "internalType": "uint256",
          "name": "value",
          "type": "uint256"
        }
      ],
      "name": "Transfer",
      "type": "event"
    },
    {
      "inputs": [
        {
          "internalType": "address",
          "name": "owner",
          "type": "address"
        },
        {
          "internalType": "address",
          "name": "spender",
          "type": "address"
        }
      ],
      "name": "allowance",
      "outputs": [
        {
          "internalType": "uint256",
          "name": "",
          "type": "uint256"
        }
      ],
      "stateMutability": "view",
      "type": "function"
    },
    {
      "inputs": [
        {
          "internalType": "address",
          "name": "spender",
          "type": "address"
        },
        {
          "internalType": "uint256",
          "name": "value",
          "type": "uint256"
        }
      ],
      "name": "approve",
      "outputs": [
        {
          "internalType": "bool",
          "name": "",
          "type": "bool"
        }
      ],
      "stateMutability": "nonpayable",
      "type": "function"
    },
    {
      "inputs": [
        {
          "internalType": "address",
          "name": "account",
          "type": "address"
        }
      ],
      "name": "balanceOf",
      "outputs": [
        {
          "internalType": "uint256",
          "name": "",
          "type": "uint256"
        }
      ],
      "stateMutability": "view",
      "type": "function"
    },
    {
      "inputs": [],
      "name": "decimals",
      "outputs": [
        {
          "internalType": "uint8",
          "name": "",
          "type": "uint8"
        }
      ],
      "stateMutability": "view",
      "type": "function"
    },
    {
      "inputs": [
        {
          "internalType": "address",
          "name": "account",
          "type": "address"
        }
      ],
      "name": "getBalance",
      "outputs": [
        {
          "internalType": "uint256",
          "name": "",
          "type": "uint256"
        }
      ],
      "stateMutability": "view",
      "type": "function"
    },
    {
      "inputs": [],
      "name": "name",
      "outputs": [
        {
          "internalType": "string",
          "name": "",
          "type": "string"
        }
      ],
      "stateMutability": "view",
      "type": "function"
    },
    {
      "inputs": [],
      "name": "owner",
      "outputs": [
        {
          "internalType": "address payable",
          "name": "",
          "type": "address"
        }
      ],
      "stateMutability": "view",
      "type": "function"
    },
    {
      "inputs": [],
      "name": "symbol",
      "outputs": [
        {
          "internalType": "string",
          "name": "",
          "type": "string"
        }
      ],
      "stateMutability": "view",
      "type": "function"
    },
    {
      "inputs": [],
      "name": "totalSupply",
      "outputs": [
        {
          "internalType": "uint256",
          "name": "",
          "type": "uint256"
        }
      ],
      "stateMutability": "view",
      "type": "function"
    },
    {
      "inputs": [
        {
          "internalType": "address",
          "name": "to",
          "type": "address"
        },
        {
          "internalType": "uint256",
          "name": "value",
          "type": "uint256"
        }
      ],
      "name": "transfer",
      "outputs": [
        {
          "internalType": "bool",
          "name": "",
          "type": "bool"
        }
      ],
      "stateMutability": "nonpayable",
      "type": "function"
    },
    {
      "inputs": [
        {
          "internalType": "address",
          "name": "from",
          "type": "address"
        },
        {
          "internalType": "address",
          "name": "to",
          "type": "address"
        },
        {
          "internalType": "uint256",
          "name": "value",
          "type": "uint256"
        }
      ],
      "name": "transferFrom",
      "outputs": [
        {
          "internalType": "bool",
          "name": "",
          "type": "bool"
        }
      ],
      "stateMutability": "nonpayable",
      "type": "function"
    },
    {
      "inputs": [],
      "name": "unlockTime",
      "outputs": [
        {
          "internalType": "uint256",
          "name": "",
          "type": "uint256"
        }
      ],
      "stateMutability": "view",
      "type": "function"
    }
  ],
  "bytecode": "0x608060405260405162001a7038038062001a70833981810160405281019062000029919062000447565b6040518060400160405280600581526020017f45524332300000000000000000000000000000000000000000000000000000008152506040518060400160405280600381526020017f45323000000000000000000000000000000000000000000000000000000000008152508160039081620000a69190620006e9565b508060049081620000b89190620006e9565b505050620000f933620000d06200014160201b60201c565b600a620000de919062000960565b6103e8620000ed9190620009b1565b6200014a60201b60201c565b33600660006101000a81548173ffffffffffffffffffffffffffffffffffffffff021916908373ffffffffffffffffffffffffffffffffffffffff1602179055505062000b04565b60006012905090565b600073ffffffffffffffffffffffffffffffffffffffff168273ffffffffffffffffffffffffffffffffffffffff1603620001bf5760006040517fec442f05000000000000000000000000000000000000000000000000000000008152600401620001b6919062000a41565b60405180910390fd5b620001d360008383620001d760201b60201c565b5050565b600073ffffffffffffffffffffffffffffffffffffffff168373ffffffffffffffffffffffffffffffffffffffff16036200022d57806002600082825462000220919062000a5e565b9250508190555062000303565b60008060008573ffffffffffffffffffffffffffffffffffffffff1673ffffffffffffffffffffffffffffffffffffffff16815260200190815260200160002054905081811015620002bc578381836040517fe450d38c000000000000000000000000000000000000000000000000000000008152600401620002b39392919062000aaa565b60405180910390fd5b8181036000808673ffffffffffffffffffffffffffffffffffffffff1673ffffffffffffffffffffffffffffffffffffffff16815260200190815260200160002081905550505b600073ffffffffffffffffffffffffffffffffffffffff168273ffffffffffffffffffffffffffffffffffffffff16036200034e57806002600082825403925050819055506200039b565b806000808473ffffffffffffffffffffffffffffffffffffffff1673ffffffffffffffffffffffffffffffffffffffff168152602001908152602001600020600082825401925050819055505b8173ffffffffffffffffffffffffffffffffffffffff168373ffffffffffffffffffffffffffffffffffffffff167fddf252ad1be2c89b69c2b068fc378daa952ba7f163c4a11628f55a4df523b3ef83604051620003fa919062000ae7565b60405180910390a3505050565b600080fd5b6000819050919050565b62000421816200040c565b81146200042d57600080fd5b50565b600081519050620004418162000416565b92915050565b60006020828403121562000460576200045f62000407565b5b6000620004708482850162000430565b91505092915050565b600081519050919050565b7f4e487b7100000000000000000000000000000000000000000000000000000000600052604160045260246000fd5b7f4e487b7100000000000000000000000000000000000000000000000000000000600052602260045260246000fd5b60006002820490506001821680620004fb57607f821691505b602082108103620005115762000510620004b3565b5b50919050565b60008190508160005260206000209050919050565b60006020601f8301049050919050565b600082821b905092915050565b6000600883026200057b7fffffffffffffffffffffffffffffffffffffffffffffffffffffffffffffffff826200053c565b6200058786836200053c565b95508019841693508086168417925050509392505050565b6000819050919050565b6000620005ca620005c4620005be846200040c565b6200059f565b6200040c565b9050919050565b6000819050919050565b620005e683620005a9565b620005fe620005f582620005d1565b84845462000549565b825550505050565b600090565b6200061562000606565b62000622818484620005db565b505050565b5b818110156200064a576200063e6000826200060b565b60018101905062000628565b5050565b601f8211156200069957620006638162000517565b6200066e846200052c565b810160208510156200067e578190505b620006966200068d856200052c565b83018262000627565b50505b505050565b600082821c905092915050565b6000620006be600019846008026200069e565b1980831691505092915050565b6000620006d98383620006ab565b9150826002028217905092915050565b620006f48262000479565b67ffffffffffffffff81111562000710576200070f62000484565b5b6200071c8254620004e2565b620007298282856200064e565b600060209050601f8311600181146200076157600084156200074c578287015190505b620007588582620006cb565b865550620007c8565b601f198416620007718662000517565b60005b828110156200079b5784890151825560018201915060208501945060208101905062000774565b86831015620007bb5784890151620007b7601f891682620006ab565b8355505b6001600288020188555050505b505050505050565b7f4e487b7100000000000000000000000000000000000000000000000000000000600052601160045260246000fd5b60008160011c9050919050565b6000808291508390505b60018511156200085e57808604811115620008365762000835620007d0565b5b6001851615620008465780820291505b80810290506200085685620007ff565b945062000816565b94509492505050565b6000826200087957600190506200094c565b816200088957600090506200094c565b8160018114620008a25760028114620008ad57620008e3565b60019150506200094c565b60ff841115620008c257620008c1620007d0565b5b8360020a915084821115620008dc57620008db620007d0565b5b506200094c565b5060208310610133831016604e8410600b84101617156200091d5782820a905083811115620009175762000916620007d0565b5b6200094c565b6200092c84848460016200080c565b92509050818404811115620009465762000945620007d0565b5b81810290505b9392505050565b600060ff82169050919050565b60006200096d826200040c565b91506200097a8362000953565b9250620009a97fffffffffffffffffffffffffffffffffffffffffffffffffffffffffffffffff848462000867565b905092915050565b6000620009be826200040c565b9150620009cb836200040c565b9250828202620009db816200040c565b91508282048414831517620009f557620009f4620007d0565b5b5092915050565b600073ffffffffffffffffffffffffffffffffffffffff82169050919050565b600062000a2982620009fc565b9050919050565b62000a3b8162000a1c565b82525050565b600060208201905062000a58600083018462000a30565b92915050565b600062000a6b826200040c565b915062000a78836200040c565b925082820190508082111562000a935762000a92620007d0565b5b92915050565b62000aa4816200040c565b82525050565b600060608201905062000ac1600083018662000a30565b62000ad0602083018562000a99565b62000adf604083018462000a99565b949350505050565b600060208201905062000afe600083018462000a99565b92915050565b610f5c8062000b146000396000f3fe608060405234801561001057600080fd5b50600436106100b45760003560e01c806370a082311161007157806370a08231146101915780638da5cb5b146101c157806395d89b41146101df578063a9059cbb146101fd578063dd62ed3e1461022d578063f8b2cb4f1461025d576100b4565b806306fdde03146100b9578063095ea7b3146100d757806318160ddd1461010757806323b872dd14610125578063251c1aa314610155578063313ce56714610173575b600080fd5b6100c161028d565b6040516100ce9190610b74565b60405180910390f35b6100f160048036038101906100ec9190610c2f565b61031f565b6040516100fe9190610c8a565b60405180910390f35b61010f610342565b60405161011c9190610cb4565b60405180910390f35b61013f600480360381019061013a9190610ccf565b61034c565b60405161014c9190610c8a565b60405180910390f35b61015d61037b565b60405161016a9190610cb4565b60405180910390f35b61017b610381565b6040516101889190610d3e565b60405180910390f35b6101ab60048036038101906101a69190610d59565b61038a565b6040516101b89190610cb4565b60405180910390f35b6101c96103d2565b6040516101d69190610da7565b60405180910390f35b6101e76103f8565b6040516101f49190610b74565b60405180910390f35b61021760048036038101906102129190610c2f565b61048a565b6040516102249190610c8a565b60405180910390f35b61024760048036038101906102429190610dc2565b6104ad565b6040516102549190610cb4565b60405180910390f35b61027760048036038101906102729190610d59565b610534565b6040516102849190610cb4565b60405180910390f35b60606003805461029c90610e31565b80601f01602080910402602001604051908101604052809291908181526020018280546102c890610e31565b80156103155780601f106102ea57610100808354040283529160200191610315565b820191906000526020600020905b8154815290600101906020018083116102f857829003601f168201915b5050505050905090565b60008061032a610546565b905061033781858561054e565b600191505092915050565b6000600254905090565b600080610357610546565b9050610364858285610560565b61036f8585856105f4565b60019150509392505050565b60055481565b60006012905090565b60008060008373ffffffffffffffffffffffffffffffffffffffff1673ffffffffffffffffffffffffffffffffffffffff168152602001908152602001600020549050919050565b600660009054906101000a900473ffffffffffffffffffffffffffffffffffffffff1681565b60606004805461040790610e31565b80601f016020809104026020016040519081016040528092919081815260200182805461043390610e31565b80156104805780601f1061045557610100808354040283529160200191610480565b820191906000526020600020905b81548152906001019060200180831161046357829003601f168201915b5050505050905090565b600080610495610546565b90506104a28185856105f4565b600191505092915050565b6000600160008473ffffffffffffffffffffffffffffffffffffffff1673ffffffffffffffffffffffffffffffffffffffff16815260200190815260200160002060008373ffffffffffffffffffffffffffffffffffffffff1673ffffffffffffffffffffffffffffffffffffffff16815260200190815260200160002054905092915050565b600061053f8261038a565b9050919050565b600033905090565b61055b83838360016106e8565b505050565b600061056c84846104ad565b90507fffffffffffffffffffffffffffffffffffffffffffffffffffffffffffffffff81146105ee57818110156105de578281836040517ffb8f41b20000000000000000000000000000000000000000000000000000000081526004016105d593929190610e71565b60405180910390fd5b6105ed848484840360006106e8565b5b50505050565b600073ffffffffffffffffffffffffffffffffffffffff168373ffffffffffffffffffffffffffffffffffffffff16036106665760006040517f96c6fd1e00000000000000000000000000000000000000000000000000000000815260040161065d9190610ea8565b60405180910390fd5b600073ffffffffffffffffffffffffffffffffffffffff168273ffffffffffffffffffffffffffffffffffffffff16036106d85760006040517fec442f050000000000000000000000000000000000000000000000000000000081526004016106cf9190610ea8565b60405180910390fd5b6106e38383836108bf565b505050565b600073ffffffffffffffffffffffffffffffffffffffff168473ffffffffffffffffffffffffffffffffffffffff160361075a5760006040517fe602df050000000000000000000000000000000000000000000000000000000081526004016107519190610ea8565b60405180910390fd5b600073ffffffffffffffffffffffffffffffffffffffff168373ffffffffffffffffffffffffffffffffffffffff16036107cc5760006040517f94280d620000000000000000000000000000000000000000000000000000000081526004016107c39190610ea8565b60405180910390fd5b81600160008673ffffffffffffffffffffffffffffffffffffffff1673ffffffffffffffffffffffffffffffffffffffff16815260200190815260200160002060008573ffffffffffffffffffffffffffffffffffffffff1673ffffffffffffffffffffffffffffffffffffffff1681526020019081526020016000208190555080156108b9578273ffffffffffffffffffffffffffffffffffffffff168473ffffffffffffffffffffffffffffffffffffffff167f8c5be1e5ebec7d5bd14f71427d1e84f3dd0314c0f7b2291e5b200ac8c7c3b925846040516108b09190610cb4565b60405180910390a35b50505050565b600073ffffffffffffffffffffffffffffffffffffffff168373ffffffffffffffffffffffffffffffffffffffff16036109115780600260008282546109059190610ef2565b925050819055506109e4565b60008060008573ffffffffffffffffffffffffffffffffffffffff1673ffffffffffffffffffffffffffffffffffffffff1681526020019081526020016000205490508181101561099d578381836040517fe450d38c00000000000000000000000000000000000000000000000000000000815260040161099493929190610e71565b60405180910390fd5b8181036000808673ffffffffffffffffffffffffffffffffffffffff1673ffffffffffffffffffffffffffffffffffffffff16815260200190815260200160002081905550505b600073ffffffffffffffffffffffffffffffffffffffff168273ffffffffffffffffffffffffffffffffffffffff1603610a2d5780600260008282540392505081905550610a7a565b806000808473ffffffffffffffffffffffffffffffffffffffff1673ffffffffffffffffffffffffffffffffffffffff168152602001908152602001600020600082825401925050819055505b8173ffffffffffffffffffffffffffffffffffffffff168373ffffffffffffffffffffffffffffffffffffffff167fddf252ad1be2c89b69c2b068fc378daa952ba7f163c4a11628f55a4df523b3ef83604051610ad79190610cb4565b60405180910390a3505050565b600081519050919050565b600082825260208201905092915050565b60005b83811015610b1e578082015181840152602081019050610b03565b60008484015250505050565b6000601f19601f8301169050919050565b6000610b4682610ae4565b610b508185610aef565b9350610b60818560208601610b00565b610b6981610b2a565b840191505092915050565b60006020820190508181036000830152610b8e8184610b3b565b905092915050565b600080fd5b600073ffffffffffffffffffffffffffffffffffffffff82169050919050565b6000610bc682610b9b565b9050919050565b610bd681610bbb565b8114610be157600080fd5b50565b600081359050610bf381610bcd565b92915050565b6000819050919050565b610c0c81610bf9565b8114610c1757600080fd5b50565b600081359050610c2981610c03565b92915050565b60008060408385031215610c4657610c45610b96565b5b6000610c5485828601610be4565b9250506020610c6585828601610c1a565b9150509250929050565b60008115159050919050565b610c8481610c6f565b82525050565b6000602082019050610c9f6000830184610c7b565b92915050565b610cae81610bf9565b82525050565b6000602082019050610cc96000830184610ca5565b92915050565b600080600060608486031215610ce857610ce7610b96565b5b6000610cf686828701610be4565b9350506020610d0786828701610be4565b9250506040610d1886828701610c1a565b9150509250925092565b600060ff82169050919050565b610d3881610d22565b82525050565b6000602082019050610d536000830184610d2f565b92915050565b600060208284031215610d6f57610d6e610b96565b5b6000610d7d84828501610be4565b91505092915050565b6000610d9182610b9b565b9050919050565b610da181610d86565b82525050565b6000602082019050610dbc6000830184610d98565b92915050565b60008060408385031215610dd957610dd8610b96565b5b6000610de785828601610be4565b9250506020610df885828601610be4565b9150509250929050565b7f4e487b7100000000000000000000000000000000000000000000000000000000600052602260045260246000fd5b60006002820490506001821680610e4957607f821691505b602082108103610e5c57610e5b610e02565b5b50919050565b610e6b81610bbb565b82525050565b6000606082019050610e866000830186610e62565b610e936020830185610ca5565b610ea06040830184610ca5565b949350505050565b6000602082019050610ebd6000830184610e62565b92915050565b7f4e487b7100000000000000000000000000000000000000000000000000000000600052601160045260246000fd5b6000610efd82610bf9565b9150610f0883610bf9565b9250828201905080821115610f2057610f1f610ec3565b5b9291505056fea2646970667358221220806328e65fa2a0d3235529c41f8b177a9294e52a5695aa25c9cc6d364917177f64736f6c63430008180033",
  "linkReferences": {},
  "deployedLinkReferences": {}
}