{
  "contractName": "BuyMeACoffee",
  "abi": [
    {
      "anonymous": false,
      "inputs": [
        {
          "indexed": true,
          "internalType": "address",
          "name": "from",
          "type": "address"
        },
        {
          "indexed": false,
          "internalType": "string",
          "name": "name",
          "type": "string"
        },
        {
          "indexed": false,
          "internalType": "string",
          "name": "message",
          "type": "string"
        }
      ],
      "name": "NewMemo",
      "type": "event"
    },
    {
      "inputs": [
        {
          "internalType": "uint256",
          "name": "",
          "type": "uint256"
        }
      ],
      "name": "memos",
      "outputs": [
        {
          "internalType": "address",
          "name": "from",
          "type": "address"
        },
        {
          "internalType": "string",
          "name": "name",
          "type": "string"
        },
        {
          "internalType": "string",
          "name": "message",
          "type": "string"
        }
      ],
      "stateMutability": "view",
      "type": "function",
      "constant": true
    },
    {
      "inputs": [
        {
          "internalType": "string",
          "name": "_name",
          "type": "string"
        },
        {
          "internalType": "string",
          "name": "_message",
          "type": "string"
        }
      ],
      "name": "buyCoffee",
      "outputs": [],
      "stateMutability": "payable",
      "type": "function",
      "payable": true
    },
    {
      "inputs": [],
      "name": "getMemos",
      "outputs": [
        {
          "components": [
            {
              "internalType": "address",
              "name": "from",
              "type": "address"
            },
            {
              "internalType": "string",
              "name": "name",
              "type": "string"
            },
            {
              "internalType": "string",
              "name": "message",
              "type": "string"
            }
          ],
          "internalType": "struct BuyMeACoffee.Memo[]",
          "name": "",
          "type": "tuple[]"
        }
      ],
      "stateMutability": "view",
      "type": "function",
      "constant": true
    }
  ],
  "bytecode": "0x608060405234801561001057600080fd5b50610c2b806100206000396000f3fe6080604052600436106100345760003560e01c8063204206e114610039578063865c517214610055578063e8dfdf0414610080575b600080fd5b610053600480360381019061004e9190610775565b6100bf565b005b34801561006157600080fd5b5061006a610235565b60405161007791906109cf565b60405180910390f35b34801561008c57600080fd5b506100a760048036038101906100a29190610a27565b61040e565b6040516100b693929190610aad565b60405180910390f35b60003411610102576040517f08c379a00000000000000000000000000000000000000000000000000000000081526004016100f990610b3e565b60405180910390fd5b600060405180606001604052803373ffffffffffffffffffffffffffffffffffffffff16815260200184815260200183815250908060018154018082558091505060019003906000526020600020906003020160009091909190915060008201518160000160006101000a81548173ffffffffffffffffffffffffffffffffffffffff021916908373ffffffffffffffffffffffffffffffffffffffff16021790555060208201518160010190805190602001906101c1929190610578565b5060408201518160020190805190602001906101de929190610578565b5050503373ffffffffffffffffffffffffffffffffffffffff167f180ab57890e30f45a576205cc51b84c9a8d6d69bcdc3fd032ae947806f56b40e8383604051610229929190610b5e565b60405180910390a25050565b60606000805480602002602001604051908101604052809291908181526020016000905b8282101561040557838290600052602060002090600302016040518060600160405290816000820160009054906101000a900473ffffffffffffffffffffffffffffffffffffffff1673ffffffffffffffffffffffffffffffffffffffff1673ffffffffffffffffffffffffffffffffffffffff1681526020016001820180546102e290610bc4565b80601f016020809104026020016040519081016040528092919081815260200182805461030e90610bc4565b801561035b5780601f106103305761010080835404028352916020019161035b565b820191906000526020600020905b81548152906001019060200180831161033e57829003601f168201915b5050505050815260200160028201805461037490610bc4565b80601f01602080910402602001604051908101604052809291908181526020018280546103a090610bc4565b80156103ed5780601f106103c2576101008083540402835291602001916103ed565b820191906000526020600020905b8154815290600101906020018083116103d057829003601f168201915b50505050508152505081526020019060010190610259565b50505050905090565b6000818154811061041e57600080fd5b90600052602060002090600302016000915090508060000160009054906101000a900473ffffffffffffffffffffffffffffffffffffffff169080600101805461046790610bc4565b80601f016020809104026020016040519081016040528092919081815260200182805461049390610bc4565b80156104e05780601f106104b5576101008083540402835291602001916104e0565b820191906000526020600020905b8154815290600101906020018083116104c357829003601f168201915b5050505050908060020180546104f590610bc4565b80601f016020809104026020016040519081016040528092919081815260200182805461052190610bc4565b801561056e5780601f106105435761010080835404028352916020019161056e565b820191906000526020600020905b81548152906001019060200180831161055157829003601f168201915b5050505050905083565b82805461058490610bc4565b90600052602060002090601f0160209004810192826105a657600085556105ed565b82601f106105bf57805160ff19168380011785556105ed565b828001600101855582156105ed579182015b828111156105ec5782518255916020019190600101906105d1565b5b5090506105fa91906105fe565b5090565b5b808211156106175760008160009055506001016105ff565b5090565b6000604051905090565b600080fd5b600080fd5b600080fd5b600080fd5b6000601f19601f8301169050919050565b7f4e487b7100000000000000000000000000000000000000000000000000000000600052604160045260246000fd5b61068282610639565b810181811067ffffffffffffffff821117156106a1576106a061064a565b5b80604052505050565b60006106b461061b565b90506106c08282610679565b919050565b600067ffffffffffffffff8211156106e0576106df61064a565b5b6106e982610639565b9050602081019050919050565b82818337600083830152505050565b6000610718610713846106c5565b6106aa565b90508281526020810184848401111561073457610733610634565b5b61073f8482856106f6565b509392505050565b600082601f83011261075c5761075b61062f565b5b813561076c848260208601610705565b91505092915050565b6000806040838503121561078c5761078b610625565b5b600083013567ffffffffffffffff8111156107aa576107a961062a565b5b6107b685828601610747565b925050602083013567ffffffffffffffff8111156107d7576107d661062a565b5b6107e385828601610747565b9150509250929050565b600081519050919050565b600082825260208201905092915050565b6000819050602082019050919050565b600073ffffffffffffffffffffffffffffffffffffffff82169050919050565b600061084482610819565b9050919050565b61085481610839565b82525050565b600081519050919050565b600082825260208201905092915050565b60005b83811015610894578082015181840152602081019050610879565b838111156108a3576000848401525b50505050565b60006108b48261085a565b6108be8185610865565b93506108ce818560208601610876565b6108d781610639565b840191505092915050565b60006060830160008301516108fa600086018261084b565b506020830151848203602086015261091282826108a9565b9150506040830151848203604086015261092c82826108a9565b9150508091505092915050565b600061094583836108e2565b905092915050565b6000602082019050919050565b6000610965826107ed565b61096f81856107f8565b93508360208202850161098185610809565b8060005b858110156109bd578484038952815161099e8582610939565b94506109a98361094d565b925060208a01995050600181019050610985565b50829750879550505050505092915050565b600060208201905081810360008301526109e9818461095a565b905092915050565b6000819050919050565b610a04816109f1565b8114610a0f57600080fd5b50565b600081359050610a21816109fb565b92915050565b600060208284031215610a3d57610a3c610625565b5b6000610a4b84828501610a12565b91505092915050565b610a5d81610839565b82525050565b600082825260208201905092915050565b6000610a7f8261085a565b610a898185610a63565b9350610a99818560208601610876565b610aa281610639565b840191505092915050565b6000606082019050610ac26000830186610a54565b8181036020830152610ad48185610a74565b90508181036040830152610ae88184610a74565b9050949350505050565b7f43616e27742062757920636f6666656520776974682030204554480000000000600082015250565b6000610b28601b83610a63565b9150610b3382610af2565b602082019050919050565b60006020820190508181036000830152610b5781610b1b565b9050919050565b60006040820190508181036000830152610b788185610a74565b90508181036020830152610b8c8184610a74565b90509392505050565b7f4e487b7100000000000000000000000000000000000000000000000000000000600052602260045260246000fd5b60006002820490506001821680610bdc57607f821691505b602082108103610bef57610bee610b95565b5b5091905056fea2646970667358221220db23589a2eb62b076f624a44cc28d278df931ba6dabb140c5c514bf04060641164736f6c634300080d0033",
  "immutableReferences": {},
  "source": "// SPDX-License-Identifier: MIT\npragma solidity ^0.8.13;\n// import { ERC721 } from \"@openzeppelin/contracts/token/ERC721/ERC721.sol\";\n// import { ERC20 } from '@openzeppelin/contracts/token/ERC20/ERC20.sol';\n\ncontract BuyMeACoffee {\n    event NewMemo(address indexed from, string name, string message);\n\n    struct Memo {\n        address from;\n        string name;\n        string message;\n    }\n\n    Memo[] public memos;\n\n    function buyCoffee(string memory _name, string memory _message) public payable {\n        require(msg.value > 0, \"Can't buy coffee with 0 ETH\");\n\n        memos.push(Memo(msg.sender, _name, _message));\n\n        emit NewMemo(msg.sender, _name, _message);\n    }\n\n    function getMemos() public view returns (Memo[] memory) {\n        return memos;\n    }\n}\n",
  "sourcePath": "/Users/shaopingguo/solidityG/test/contracts/BuyMeACoffee.sol",
  "compiler": {
    "name": "solc",
    "version": "0.8.13+commit.abaa5c0e.Emscripten.clang"
  },
  "schemaVersion": "3.4.16",
  "updatedAt": "2024-05-23T09:01:15.464Z",
  "networkType": "ethereum",
  "devdoc": {
    "kind": "dev",
    "methods": {},
    "version": 1
  },
  "userdoc": {
    "kind": "user",
    "methods": {},
    "version": 1
  }
}